:020000040800F2
:1000000060070020910100083F16000865150008F0
:100010003D160008AF040008C319000800000000E6
:10002000000000000000000000000000431600086F
:10003000E70400080000000041160008451600080B
:10004000AB010008AB010008AB010008AB010008E0
:10005000AB010008AB010008AB010008AB010008D0
:10006000AB010008AB010008AB010008AB010008C0
:10007000AB010008AB010008B1040008AB010008A7
:10008000AB010008AB010008AB010008AB010008A0
:10009000AB010008AB010008AB010008AB01000890
:1000A000AB010008AB010008AB010008AB01000880
:1000B000A9160008AB010008AB010008AB0100085D
:1000C000AB010008AB010008AB010008AB01000860
:1000D000AB010008AB010008AB010008AB01000850
:1000E000E9040008AB010008AB01000800F002F8C9
:1000F00000F03FF80AA090E8000C82448344AAF183
:100100000107DA4501D100F034F8AFF2090EBAE880
:100110000F0013F0010F18BFFB1A43F0010318473B
:1001200090190000B0190000103A24BF78C878C1B7
:10013000FAD8520724BF30C830C144BF04680C60ED
:10014000704700000023002400250026103A28BF35
:1001500078C1FBD8520728BF30C148BF0B60704739
:10016000752900F08580002070471FB51FBD10B5B0
:1001700010BD00F062F91146FFF7F7FF01F032FC05
:1001800000F080F903B4FFF7F2FF03BC00F088F938
:100190000948804709480047FEE7FEE7FEE7FEE71B
:1001A000FEE7FEE7FEE7FEE7FEE7FEE70448054957
:1001B000054A064B70470000A7160008ED0000082E
:1001C0006001002060070020600300206003002021
:1001D0000FB47CB50C0009AA009001D02044401E49
:1001E000084B7B4469460190089800F006F90546E3
:1001F0001CB10020694600F013F928467CBC5DF86C
:1002000014FB0000450200002DE9F0410E460446B3
:10021000002020622046E168884730B3252805D0B9
:10022000D4E901219047206A401CF2E7E1682046AA
:1002300000278847050018D0A5F14100192802D8E9
:1002400020354FF400673246294620462760FFF7E5
:1002500087FF40B1012804D0F61D26F007060836B6
:10026000D8E7361DD6E72846DAE7206ABDE8F081F0
:100270002DE9F0410646002410687529314616A57F
:1002800010D0AFF30080002802DA404213A507E047
:1002900031688A0701D512A502E0490704D511A5E6
:1002A000012401E0AFF3008000210A2206F12407B7
:1002B00009E0B0FBF2FCB0FBF2F302FB1C003030B3
:1002C00078541846491C0028F3D123462A46304664
:1002D000BDE8F04100F032B8000000002D00000041
:1002E0002B000000200000004FF0000200B5134674
:1002F00094469646203922BFA0E80C50A0E80C5046
:10030000B1F12001BFF4F7AF090728BFA0E80C50F6
:1003100048BF0CC05DF804EB890028BF40F8042BEF
:1003200008BF704748BF20F8022B11F0804F18BF5C
:1003300000F8012B70477047704770472DE9F04770
:100340000D4699469246044600F124080168880645
:1003500004D5E06921F01001216000E00120A842ED
:1003600001DD471B00E00027A1697A1902EB0900B3
:10037000081AA0612078C00602D42046AFF300809E
:10038000002608E0D4E901211AF806009047206A07
:10039000401C761C20624E45F4DB2078C0060AD54E
:1003A0002046AFF3008006E0D4E9012130209047D9
:1003B000206A401C2062381EA7F10107F4DC07E028
:1003C000D4E9012118F805009047206A401C2062FA
:1003D000281EA5F10105F3DC2046AFF3008020784C
:1003E000000602D50220BDE8F0870120FBE70000EF
:1003F00001694A1C02610878704700B58FB0CDE9E9
:1004000001310021059105497944CDE903101146D8
:100410006846FFF7F9FE0FB000BD0000E5FFFFFFE3
:100420000A6802F8010B0A607047D1E900239A427A
:1004300002D2531C0B6010707047754600F02CF808
:10044000AE4605006946534620F00700854618B0C1
:1004500020B5FFF7ABFEBDE820404FF000064FF09F
:1004600000074FF000084FF0000B21F00701AC46E9
:10047000ACE8C009ACE8C009ACE8C009ACE8C00908
:100480008D46704710B50446AFF300802046BDE8A6
:100490001040FFF777BE000000487047FC000020C6
:1004A00001491820ABBEFEE7260002007047FEE7B8
:1004B000014800F01FB80000B800002030B590F8E7
:1004C00040500124AC40C56B6C60046863604368B5
:1004D000102B036803D099600068C26030BD9A6039
:1004E0000068C16030BD70474FF4005000F028B97B
:1004F00072B6FEE72DE9F05FC16B0C6801680B680E
:10050000D0F840C0042202FA0CF2494DDFF824A1D1
:10051000494E4A4FDFF828B1DFF828E122422CD0BB
:100520005A072AD50A68920603D40A6822F0040200
:100530000A600168A94201D1042219E0514501D1A4
:10054000402215E0B14202D14FF4806210E0B9427E
:1005500002D14FF480420BE0594502D14FF4802282
:1005600006E0714502D14FF4800201E04FF0806255
:100570002F4908394A60C16A3BE04FF0020808FA87
:100580000CF818EA040F4FF000094FF0010235D0C3
:100590005FEA837832D50B689B0605D40B6823F09D
:1005A0000A030B6080F821200168A94201D10222D0
:1005B00019E0514501D1202215E0B14202D14FF49A
:1005C000007210E0B94202D14FF400520BE05945DD
:1005D00002D14FF4003206E0714502D14FF400120F
:1005E00001E04FF00072124908394A6080F820900B
:1005F000816A00291AD0BDE8F05F0847082505FA8E
:100600000CF5254212D01B0710D50B6823F00E0302
:100610000B6090F84010C36B02FA01F159608263DD
:1006200080F8212080F82090016BE2E7BDE8F09F80
:10063000080002401C00024030000240440002401A
:10064000580002406C00024030B528B308C8134976
:1006500014221944B1FBF2F18900C163104981638E
:10066000022141771A6843F6F0718A43D0E90014F9
:100670002143D0E902452C432143046921434469C5
:100680002143846921431143196000214163012200
:1006900042770177084630BD012030BDF8FFFDBF2D
:1006A0000000024070B5044690F8200000250128A3
:1006B0000CD0012084F8200094F821600020012E45
:1006C00006D084F820000225284670BD022070BDA7
:1006D000022684F82160A0632068066826F00106DF
:1006E00006602046FFF7EAFEE06A002820680168FD
:1006F00002D041F00E0106E021F004010160206803
:10070000016841F00A0101602068016841F00101BF
:100710000160D9E7B0F5005F05D16423102202A182
:10072000064800F091BE70474558544920547269FC
:100730006767657265640D0A0000000060000020B4
:10074000044910B50A68024202D00860FFF7E2FFD0
:1007500010BD0000140401402DE9F84FDFF8B891F6
:100760000024A9F1040B23460F2709F1040AABF179
:10077000040EC9E00125A5402A40AA427DD1674E5A
:10078000D1F804C0ACEB0608B44532D014DCBCF19F
:10079000030F3AD009DCBCF1000F2AD0BCF1010FE5
:1007A0001CD0BCF1020F31D11DE0BCF1110F17D0EC
:1007B000BCF1120F2AD119E0B8F5881F19D006DC58
:1007C000B8F5803F15D0B8F5801F1FD111E0B8F5FE
:1007D000001F0ED0B8F5041F18D10AE0CB6815E051
:1007E000CB681B1D12E0CB6808330FE0CB680C33DD
:1007F0000CE08B682BB1012B4FF0080303D045614F
:1008000004E0042302E0056100E00023FF2A01D890
:10081000064601E000F104064FEA840501D9A5F17E
:100820002005D6F8008007FA05FC28EA0C0803FA30
:1008300005F548EA0508C6F800804D68ED0062D568
:10084000374DAE6946F00106AE61AD6924F003068E
:1008500005F001050095334D06EB050CDCF808505A
:10086000A607360F07FA06F825EA0805DFF8B8806C
:10087000404503D14FF0000817E044E0DFF8AC80BA
:10088000404502D14FF001080FE0DFF8A480404559
:1008900002D14FF0020808E0DFF89880404502D10D
:1008A0004FF0030801E04FF0040808FA06F848EAA0
:1008B0000508CCF808804D68D9F80060ED024D4677
:1008C00001D5164300E096432E604D68DAF80060CB
:1008D000AD02554601D5164300E096432E604D68A3
:1008E000DBF80060AD035D4601D5164300E096439A
:1008F0002E604D68DEF80060ED03754601D51643A5
:1009000000E096432E60641C0D682A46E5407FF4A3
:1009100031AFBDE8F88F000008040140000011105D
:10092000001002400000014000080140000C01409E
:1009300000100140001401408068084000D00120F0
:1009400070470000014880687047000008000020E0
:1009500002488168027811448160704708000020D5
:10096000074810B5016841F010010160032000F054
:1009700075F80F2000F006F800F024F8002010BDF4
:100980000020024070B50D4D04464FF47A7128786E
:10099000B1FBF0F00A490968B1FBF0F000F0DCFAB5
:1009A00048B9102C07D200222146501E00F036F81C
:1009B00000206C6070BD012070BD000008000020A8
:1009C000140000200C4808B5816941F001018161E3
:1009D000816901F001010091C16941F08051C1615B
:1009E000C06900F0805000900448416821F0E06147
:1009F00041F00071416008BD00100240000001405C
:100A0000002809DB00F01F0201219140400980000D
:100A100000F1E020C0F8001170470000F0B40E4B68
:100A20001B680C46C3F30223C3F10705042D00D94C
:100A30000425191D072901D2002300E0DB1E012631
:100A400006FA05F1491E214099409E40761E164047
:100A50003143F0BC00F0B6BF0CED00E0064900F0F9
:100A6000070208684FF6FF03184040EA0220034AD5
:100A700010430860704700000CED00E00000FA052C
:100A80002DE9F0470F46050061D0434E306800F075
:100A90000700B84209D2306820F0070038433060C0
:100AA000306800F00700B84251D128683B4C8107FC
:100AB00012D5400703D5606840F4E0606060287894
:100AC000000703D5606840F4605060606068A96802
:100AD00020F0F000084360602878C00728D06868DC
:100AE000012810D02168022810D0890700292EDAA9
:100AF000616821F0030101436160FFF723FF804635
:100B000041F288390DE021688903EFE78901EDE7BB
:100B1000FFF718FFA0EB0801494502D90320BDE803
:100B2000F0876068696800F00C00B0EB810FEFD1CE
:100B3000306800F00700B8420BD9306820F0070099
:100B400038433060306800F00700B84201D001201F
:100B5000E5E72878400705D56068E96820F4E0609B
:100B6000084360602878000706D56068296920F48A
:100B7000605040EAC100606000F038F86168084ADF
:100B8000C1F30311515CC84006490860064800687B
:100B9000FFF7F8FE0020C2E70020024000100240EC
:100BA000961A0008140000200C0000200448054993
:100BB00000684968044AC1F30221515CC84070478B
:100BC0001400002000100240A61A0008044805493D
:100BD00000684968044AC1F3C221515CC8407047AB
:100BE0001400002000100240A61A00080E4A5168A6
:100BF0000E4801F00C03042B11D0082B0FD10C4828
:100C0000C1F38343C903C05C0AD55168084AC1F3E4
:100C10004041921E515C054A5043B0FBF1F07047D1
:100C200004494843704700000010024000127A0057
:100C3000861A000800093D002DE9F84F040070D025
:100C40002078C04DC00749D06868C0F381000128F2
:100C500007D06868C0F38100022809D16868C00322
:100C600006D52868800339D560680028E7D035E0CC
:100C70006068B0F5803F0BD010B1B0F5A02F11D057
:100C8000286820F480302860286820F4802002E062
:100C9000286840F480302860606890B1FFF752FE09
:100CA00006460AE0286840F480202860F0E700BF8C
:100CB000FFF748FE801B642873D828688003F7D5A7
:100CC0000CE0FFF73FFE064605E000BFFFF73AFEE7
:100CD000801B6428F0D828688003F7D420789A4EC7
:100CE00080074FF001094FF0000839D5686810F00F
:100CF0000C0F07D06868C0F38100022809D168682A
:100D0000C00306D42868800714D52069012808D1BB
:100D100010E02069B0B1C6F80090FFF713FE074657
:100D200005E00AE1FFF70EFEC01B0228C4D82868C0
:100D30008007F7D52868616920F0F80040EAC10013
:100D400028600DE0C6F80080FFF7FCFD074604E0D0
:100D5000FFF7F8FDC01B022823D828688007F7D4C6
:100D6000207800072CD57948A169D9B1C0F8009046
:100D7000FFF7E8FD074604E0FFF7E4FDC01B02288B
:100D80000FD8686A8007F7D571484FF4FA510068A8
:100D9000B0FBF1F0009000BF0098411E0091FAD224
:100DA0000EE080E0C0F80080FFF7CCFD074604E0CD
:100DB000FFF7C8FDC01B022875D8686A8007F7D402
:100DC0002078400760D5E8690027C00008D4E869AA
:100DD00040F08050E861E869012700F08050009001
:100DE0005C480168C90513D40168834641F48071E9
:100DF0000160FFF7A7FD824606E000BFFFF7A2FDF6
:100E0000A0EB0A0064284ED8DBF80000C005F5D539
:100E1000E06801280AD008B1052813D0286A20F01C
:100E200001002862286A20F0040002E0286A40F0ED
:100E300001002862E06841F2883B98B1FFF782FD2B
:100E400082460BE0286A40F004002862EEE700BF0B
:100E5000FFF778FDA0EB0A0159455AD8286A8007A8
:100E6000F6D50CE0FFF76EFD824605E0FFF76AFD60
:100E7000A0EB0A0159454CD8286A8007F6D41FB167
:100E8000E86920F08050E861E06988B36968C1F3DF
:100E90008101022944D00228C6F8608004D0FFF7FF
:100EA00051FD044638E034E0FFF74CFD074604E00E
:100EB000FFF748FDC01B02282BD828688001F7D413
:100EC000206AB0F5803F05D16868A16820F4003041
:100ED00008436860D4E908010843696821F4741183
:100EE00008436860C6F86090FFF72CFD044606E0F2
:100EF00025E000BFFFF726FD001B022809D828685F
:100F00008001F7D51BE000BFFFF71CFD001B022886
:100F100002D90320BDE8F88F28688001F4D40EE0E0
:100F20000128F7D06868226A00F48031914204D128
:100F3000616A00F47010884201D00120EAE70020C5
:100F4000E8E70000001002400000424280044242F4
:100F5000140000200070004010B5401EB0F1807FEA
:100F600001D3012010BD4FF0E02460610F21601714
:100F700000F028FD0020A06107202061002010BDA6
:100F80007047704770B590F83C20012A26D00124A4
:100F900080F83C40022280F83D2003685A689D6832
:100FA00022F070060A6832435A600D4B02689A427A
:100FB00008D0B2F1804F05D00A4B9A4202D00A4BBA
:100FC0009A4204D1496825F080031943916080F862
:100FD0003D40002180F83C10084670BD022070BDE5
:100FE000002C0140000400400008004010B504003F
:100FF00003D094F83D0010B107E0012010BD00209F
:1010000084F83C00204600F01FF8022084F83D00E0
:10101000211D206800F04EFB012084F8460084F872
:101020003E0084F83F0084F8400084F8410084F8D2
:10103000420084F8430084F8440084F8450084F8B2
:101040003D00002010BD000008B50068B0F1804FE1
:1010500012D10A48C16941F00101C161C069002291
:1010600000F00100009011461C20FFF7D7FCBDE8FE
:1010700008401C20FFF7C4BC08BD0000001002405F
:101080000168CA6822F00102CA6001680A6A41F276
:1010900011131A4207D10A6A9B101A4203D10A6837
:1010A00022F001020A60012180F83D100020704703
:1010B00070B5044690F83C000025012817D00126A1
:1010C00084F83C60022084F83D002068826822F0A9
:1010D000770222F47F4282600868502838D00DDC05
:1010E00020284FD005DC90B3102811D14AE002200F
:1010F00070BD302846D040280AD13BE060282FD070
:1011000070280DD0B0F5805F03D0B0F5005F12D02D
:10111000012584F83D60002084F83C00284670BD1D
:10112000CB68D1E90121206800F000FB20688168CC
:1011300041F0770109E0CB68D1E90121206800F096
:10114000F5FA2068816841F480418160E1E719E0A7
:10115000CA684968206800F0FBFA5021206806E060
:10116000CA684968206800F004FB6021206800F02C
:10117000E7FACEE7CA684968206800F0E9FA40213A
:101180002068F4E7226801461046F0E770472DE931
:10119000F04104460068C66805694FF00007A907DA
:1011A00013D5B10711D5F91E016101202077206800
:1011B00080698007204602D0FFF7E8FF04E000F0D6
:1011C0007EF8204600F07CF82777680716D5700770
:1011D00014D521686FF00400086102202077206890
:1011E000806910F4407F204602D0FFF7CFFF04E073
:1011F00000F065F8204600F063F82777280715D53A
:10120000300713D521686FF00800086104202077AB
:101210002068C0698007204602D0FFF7B7FF04E0CE
:1012200000F04DF8204600F04BF82777E80616D579
:10123000F00614D521686FF01000086108202077AF
:101240002068C06910F4407F204602D0FFF79EFF5F
:1012500004E000F034F8204600F032F82777E80781
:1012600008D0F00706D021686FF001000861204621
:1012700000F028F8280608D5300606D521686FF05A
:10128000800008612046FFF77BFE680608D57006DF
:1012900006D521686FF040000861204600F050F844
:1012A000A8060AD5B00608D521686FF020000861AD
:1012B0002046BDE8F041FFF764BEBDE8F08170470D
:1012C0007047000070B50068B0F1804F1ED14FF438
:1012D000005529461648FFF72FFB012800D00020B3
:1012E000144C94F90110002911DB94F9011007291D
:1012F0000DDC617888402178084320706078401CBC
:1013000060700D4960680968401EC86270BD6078F1
:101310000828FBD10848FFF7B3FEFF2060700120CA
:10132000A07006480560BDE870402820FFF768BB44
:10133000000C0140000000201800002014040140AF
:101340007047704770B5040004D094F84100002540
:1013500010B106E0012070BD84F84050204600F036
:1013600023F8242084F841002068C16821F400514A
:10137000C160204600F090FA2068016921F4904194
:1013800001612068416921F02A0141612068C1683A
:1013900041F40051C1606564202084F8410084F864
:1013A00042006563002070BD70B586B0002506461A
:1013B000009501950295039500681E49884237D132
:1013C0001D49886940F480408861886900F4804044
:1013D0000490886940F0040088618869174C00F027
:1013E000040004904815009002200190032003900F
:1013F00069462046FFF7B0F92015CDE9000569469A
:1014000020460295FFF7A8F90E4C0D4820601020E9
:10141000C4E901058020C4E903056561A561204692
:10142000E561FFF711F908B1FFF762F8B46366628E
:1014300006B070BD003801400010024000080140B5
:1014400044000240B80000202DE9F843044690F81B
:101450004100984616460D46202802D00220BDE8DD
:10146000F88385B17EB100206064212084F84100BA
:10147000FFF768FAA6848146E684A0682027B0F5C5
:10148000805F02D003E00120E9E7206910B12E4619
:1014900000250EE000260CE08021204600F058FADE
:1014A000A8B9C6B116F8010B21684860E08C401E4F
:1014B000E084E08C4B464FF00002CDF8008000281D
:1014C000EAD14FF04001204600F042FA40B184F8E2
:1014D00041700320C3E735F8020BC0F30800E3E7CF
:1014E00084F841700020BAE770B5044690F84100D6
:1014F000202801D0022070BD49B342B32162A284EA
:10150000E28400206064212384F84130A56B114BF4
:10151000AB62A56B104BEB62A56B104B2B63A36BFF
:101520005863256813462A1DA06BFFF7BBF8216896
:101530006FF0400008602068143050E8001F41F050
:10154000800140E80012002AF5D1002070BD012082
:1015500070BD0000E1170008231800089717000865
:1015600070477047FEE7000000B585B0002003908B
:101570001648816941F020018161816901F02001F3
:101580000491816941F008018161816901F00801DC
:101590000491816941F0040181618069694600F02C
:1015A000040004904FF4005000900948019001207D
:1015B00002900848FFF7D0F8002211462820FFF7D4
:1015C0002DFA2820FFF71CFA05B000BD00100240DC
:1015D00000002110000C014010B586B00024164810
:1015E000009401940294039404944FF08041059474
:1015F00001604721C0E901146721C0E90314846137
:10160000FFF7F4FC08B172B6FEE74FF4805000908B
:1016100069460948FFF74CFD08B172B6FEE704942D
:1016200004A905480594FFF7ADFC002801D072B667
:10163000FEE706B010BD000018000020FEE7FEE740
:1016400070477047FFF784B930B58FB028216846DE
:10165000FEF74AFE14210AA8FEF746FE01210804FF
:10166000CDE900100024029402250491CDE9075031
:101670004FF4E01009906846FFF7DEFA08B172B641
:10168000FEE70F20CDE90A054FF48060CDE90C405C
:1016900002210AA80E94FFF7F3F9002801D072B6D0
:1016A000FEE70FB030BD70470148FFF770BD000086
:1016B00018000020F0B50268194B1A4C1A4D4FF073
:1016C0008047984205D0B84203D0A04201D0A8423A
:1016D00003D122F070064A683243984205D0B842DE
:1016E00003D0A04201D0A84203D122F44074CA68BA
:1016F00022434C6922F08002224302608A68C2625F
:101700000A688262984201D109690163012141613D
:101710000169C90703D0016921F001010161F0BD30
:10172000002C0140000400400008004010B584680F
:1017300042EA032224F47F440A432243826010BD1C
:10174000826822F070020A4342F00701816070470C
:1017500010B5036A046A24F001040462846924F069
:10176000F00444EA021423F00A020A43846102628C
:1017700010BD10B5036A046A24F010040462846981
:1017800023F0A00324F4704444EA023243EA011136
:101790008261016210BD70B5446A2068406994F8A6
:1017A0004110C0F3C0100025212904D118B1E584EF
:1017B000204600F062F82068406994F84210C0F3B7
:1017C0008010222904D118B1E585204600F02EF8BA
:1017D000606C40F0100060642046FFF7B2FD70BD01
:1017E00010B50146406A09680968890616D40021C7
:1017F000C1840168143151E8002F22F0800241E8D1
:101800000023002BF5D101680C3151E8002F42F084
:10181000400241E80023002BF5D110BDFFF7A0FEE8
:1018200010BD10B5406AFFF79CFE10BD01680C3179
:1018300051E8002F22F4907241E80023002BF5D1EB
:101840000168143151E8002F22F0010241E8002321
:10185000002BF5D1016B012909D101680C3151E848
:10186000002F22F0100241E80023002BF5D12021A7
:1018700080F8421000210163704701680C3151E883
:10188000002F22F0C00241E80023002BF5D12021D7
:1018900080F841107047000070B504460068016987
:1018A000E26821F44051114301612169A0680843B5
:1018B000616908432168CA6841F20C639A43024394
:1018C000CA6020684169A26921F4407111434161F5
:1018D0001E492068884202D1FFF778F901E0FFF73E
:1018E00065F900EBC00101EB001260686421800023
:1018F000B2FBF0F3B3FBF1F36FF018067343B2FBE6
:10190000F0F5B2FBF0F605EB8305322303EB05158A
:10191000B5FBF1F5B6FBF1F605F0F00505EB0615A4
:10192000B2FBF0F6B2FBF0F0B0FBF1F06FF0180292
:10193000504306EB800003EB0010B0FBF1F0216890
:1019400000F00F002844886070BD0000003801409E
:101950002DE9F843984617460D460446089E24E0B4
:10196000701C22D0FEF7EEFFA0EB0800B0421AD8A0
:10197000CEB12068C168490717D5802D15D0402DFC
:1019800013D00168C94309070FD4016800254068D6
:1019900000902046FFF74AFF0820606484F840501A
:1019A0000120BDE8F8830320FBE72068006835EAE2
:1019B000000004D00020B842D2D00020F1E701207E
:1019C000F9E7FEE70907090E002804DB00F1E02033
:1019D00080F80014704700F00F0000F1E02080F85C
:1019E000141D704708B5FEF7BBFFFFF72DFEFFF78C
:1019F000BBFD1E48416941F001014161406900227F
:101A000000F00100009011460E20FFF707F80E20AD
:101A1000FEF7F6FF17481649002401604FF41651EF
:101A2000C0E901140C21C460C0E904418461C461AF
:101A3000FFF788FC08B172B6FEE7FFF7CDFD0E4D4B
:101A400068206860A8780028FCD0AC702B78094822
:101A50000AA210214830FEF7BBFB0028F2DD054941
:101A600082B248310348FFF73FFDEBE70010024028
:101A700000380140600000200000002025750D0A9C
:101A800000000000010202030405060708090A0B12
:101A90000C0D0E0F101000000000000000000102ED
:101AA0000304060708090000000001020304000007
:101AB000D01A0008000000201800000028010008CB
:101AC000E81A000818000020480700004401000838
:101AD00000FF0000000000000100000010000000F6
:081AE0000000000000127A0072
:04000005080000ED02
:00000001FF
